{
  "_format": "hh-sol-artifact-1",
  "contractName": "Manager",
  "sourceName": "contracts/Manager.sol",
  "abi": [
    {
      "inputs": [],
      "stateMutability": "nonpayable",
      "type": "constructor"
    },
    {
      "inputs": [
        {
          "internalType": "string",
          "name": "_name",
          "type": "string"
        }
      ],
      "name": "createTicket",
      "outputs": [],
      "stateMutability": "nonpayable",
      "type": "function"
    },
    {
      "inputs": [],
      "name": "destroyContract",
      "outputs": [],
      "stateMutability": "nonpayable",
      "type": "function"
    },
    {
      "inputs": [],
      "name": "getAllTickets",
      "outputs": [
        {
          "components": [
            {
              "internalType": "uint8",
              "name": "status",
              "type": "uint8"
            },
            {
              "internalType": "string",
              "name": "name",
              "type": "string"
            }
          ],
          "internalType": "struct Manager.Ticket[]",
          "name": "",
          "type": "tuple[]"
        }
      ],
      "stateMutability": "view",
      "type": "function"
    },
    {
      "inputs": [],
      "name": "owner",
      "outputs": [
        {
          "internalType": "address payable",
          "name": "",
          "type": "address"
        }
      ],
      "stateMutability": "view",
      "type": "function"
    },
    {
      "inputs": [
        {
          "internalType": "uint256",
          "name": "",
          "type": "uint256"
        }
      ],
      "name": "tickets",
      "outputs": [
        {
          "internalType": "uint8",
          "name": "status",
          "type": "uint8"
        },
        {
          "internalType": "string",
          "name": "name",
          "type": "string"
        }
      ],
      "stateMutability": "view",
      "type": "function"
    },
    {
      "inputs": [
        {
          "internalType": "uint256",
          "name": "_index",
          "type": "uint256"
        },
        {
          "internalType": "string",
          "name": "_newName",
          "type": "string"
        }
      ],
      "name": "updateTicketName",
      "outputs": [],
      "stateMutability": "nonpayable",
      "type": "function"
    },
    {
      "inputs": [
        {
          "internalType": "uint256",
          "name": "_index",
          "type": "uint256"
        },
        {
          "internalType": "uint8",
          "name": "_newStatus",
          "type": "uint8"
        }
      ],
      "name": "updateTicketStatus",
      "outputs": [],
      "stateMutability": "nonpayable",
      "type": "function"
    }
  ],
  "bytecode": "0x608060405234801561001057600080fd5b50336000806101000a81548173ffffffffffffffffffffffffffffffffffffffff021916908373ffffffffffffffffffffffffffffffffffffffff160217905550610e4c806100606000396000f3fe608060405234801561001057600080fd5b506004361061007d5760003560e01c80636897082f1161005b5780636897082f146100db5780638da5cb5b146100f7578063a460b81714610115578063d4ab7b83146101315761007d565b806303e96fe314610082578063092a5cce146100a057806350b44712146100aa575b600080fd5b61008a61014d565b60405161009791906106b3565b60405180910390f35b6100a861025b565b005b6100c460048036038101906100bf919061071f565b610322565b6040516100d29291906107a5565b60405180910390f35b6100f560048036038101906100f0919061090a565b6103eb565b005b6100ff61046b565b60405161010c9190610994565b60405180910390f35b61012f600480360381019061012a91906109db565b61048f565b005b61014b60048036038101906101469190610a1b565b6104d1565b005b60606001805480602002602001604051908101604052809291908181526020016000905b8282101561025257838290600052602060002090600202016040518060400160405290816000820160009054906101000a900460ff1660ff1660ff1681526020016001820180546101c190610aa6565b80601f01602080910402602001604051908101604052809291908181526020018280546101ed90610aa6565b801561023a5780601f1061020f5761010080835404028352916020019161023a565b820191906000526020600020905b81548152906001019060200180831161021d57829003601f168201915b50505050508152505081526020019060010190610171565b50505050905090565b60008054906101000a900473ffffffffffffffffffffffffffffffffffffffff1673ffffffffffffffffffffffffffffffffffffffff163373ffffffffffffffffffffffffffffffffffffffff16146102e9576040517f08c379a00000000000000000000000000000000000000000000000000000000081526004016102e090610b49565b60405180910390fd5b60008054906101000a900473ffffffffffffffffffffffffffffffffffffffff1673ffffffffffffffffffffffffffffffffffffffff16ff5b6001818154811061033257600080fd5b90600052602060002090600202016000915090508060000160009054906101000a900460ff169080600101805461036890610aa6565b80601f016020809104026020016040519081016040528092919081815260200182805461039490610aa6565b80156103e15780601f106103b6576101008083540402835291602001916103e1565b820191906000526020600020905b8154815290600101906020018083116103c457829003601f168201915b5050505050905082565b60016040518060400160405280600060ff16815260200183815250908060018154018082558091505060019003906000526020600020906002020160009091909190915060008201518160000160006101000a81548160ff021916908360ff16021790555060208201518160010190816104659190610d15565b50505050565b60008054906101000a900473ffffffffffffffffffffffffffffffffffffffff1681565b80600183815481106104a4576104a3610de7565b5b906000526020600020906002020160000160006101000a81548160ff021916908360ff1602179055505050565b80600183815481106104e6576104e5610de7565b5b906000526020600020906002020160010190816105039190610d15565b505050565b600081519050919050565b600082825260208201905092915050565b6000819050602082019050919050565b600060ff82169050919050565b61054a81610534565b82525050565b600081519050919050565b600082825260208201905092915050565b60005b8381101561058a57808201518184015260208101905061056f565b60008484015250505050565b6000601f19601f8301169050919050565b60006105b282610550565b6105bc818561055b565b93506105cc81856020860161056c565b6105d581610596565b840191505092915050565b60006040830160008301516105f86000860182610541565b506020830151848203602086015261061082826105a7565b9150508091505092915050565b600061062983836105e0565b905092915050565b6000602082019050919050565b600061064982610508565b6106538185610513565b93508360208202850161066585610524565b8060005b858110156106a15784840389528151610682858261061d565b945061068d83610631565b925060208a01995050600181019050610669565b50829750879550505050505092915050565b600060208201905081810360008301526106cd818461063e565b905092915050565b6000604051905090565b600080fd5b600080fd5b6000819050919050565b6106fc816106e9565b811461070757600080fd5b50565b600081359050610719816106f3565b92915050565b600060208284031215610735576107346106df565b5b60006107438482850161070a565b91505092915050565b61075581610534565b82525050565b600082825260208201905092915050565b600061077782610550565b610781818561075b565b935061079181856020860161056c565b61079a81610596565b840191505092915050565b60006040820190506107ba600083018561074c565b81810360208301526107cc818461076c565b90509392505050565b600080fd5b600080fd5b7f4e487b7100000000000000000000000000000000000000000000000000000000600052604160045260246000fd5b61081782610596565b810181811067ffffffffffffffff82111715610836576108356107df565b5b80604052505050565b60006108496106d5565b9050610855828261080e565b919050565b600067ffffffffffffffff821115610875576108746107df565b5b61087e82610596565b9050602081019050919050565b82818337600083830152505050565b60006108ad6108a88461085a565b61083f565b9050828152602081018484840111156108c9576108c86107da565b5b6108d484828561088b565b509392505050565b600082601f8301126108f1576108f06107d5565b5b813561090184826020860161089a565b91505092915050565b6000602082840312156109205761091f6106df565b5b600082013567ffffffffffffffff81111561093e5761093d6106e4565b5b61094a848285016108dc565b91505092915050565b600073ffffffffffffffffffffffffffffffffffffffff82169050919050565b600061097e82610953565b9050919050565b61098e81610973565b82525050565b60006020820190506109a96000830184610985565b92915050565b6109b881610534565b81146109c357600080fd5b50565b6000813590506109d5816109af565b92915050565b600080604083850312156109f2576109f16106df565b5b6000610a008582860161070a565b9250506020610a11858286016109c6565b9150509250929050565b60008060408385031215610a3257610a316106df565b5b6000610a408582860161070a565b925050602083013567ffffffffffffffff811115610a6157610a606106e4565b5b610a6d858286016108dc565b9150509250929050565b7f4e487b7100000000000000000000000000000000000000000000000000000000600052602260045260246000fd5b60006002820490506001821680610abe57607f821691505b602082108103610ad157610ad0610a77565b5b50919050565b7f4f6e6c7920746865206f776e65722063616e2063616c6c20746869732066756e60008201527f6374696f6e000000000000000000000000000000000000000000000000000000602082015250565b6000610b3360258361075b565b9150610b3e82610ad7565b604082019050919050565b60006020820190508181036000830152610b6281610b26565b9050919050565b60008190508160005260206000209050919050565b60006020601f8301049050919050565b600082821b905092915050565b600060088302610bcb7fffffffffffffffffffffffffffffffffffffffffffffffffffffffffffffffff82610b8e565b610bd58683610b8e565b95508019841693508086168417925050509392505050565b6000819050919050565b6000610c12610c0d610c08846106e9565b610bed565b6106e9565b9050919050565b6000819050919050565b610c2c83610bf7565b610c40610c3882610c19565b848454610b9b565b825550505050565b600090565b610c55610c48565b610c60818484610c23565b505050565b5b81811015610c8457610c79600082610c4d565b600181019050610c66565b5050565b601f821115610cc957610c9a81610b69565b610ca384610b7e565b81016020851015610cb2578190505b610cc6610cbe85610b7e565b830182610c65565b50505b505050565b600082821c905092915050565b6000610cec60001984600802610cce565b1980831691505092915050565b6000610d058383610cdb565b9150826002028217905092915050565b610d1e82610550565b67ffffffffffffffff811115610d3757610d366107df565b5b610d418254610aa6565b610d4c828285610c88565b600060209050601f831160018114610d7f5760008415610d6d578287015190505b610d778582610cf9565b865550610ddf565b601f198416610d8d86610b69565b60005b82811015610db557848901518255600182019150602085019450602081019050610d90565b86831015610dd25784890151610dce601f891682610cdb565b8355505b6001600288020188555050505b505050505050565b7f4e487b7100000000000000000000000000000000000000000000000000000000600052603260045260246000fdfea26469706673582212208dbaa17a32c93d3533db534f58bd20c0bf927bb90feb615fbf25b4464d86d97c64736f6c63430008110033",
  "linkReferences": {},
  "deployedLinkReferences": {}
}