{
  "_format": "hh-sol-artifact-1",
  "contractName": "Manager",
  "sourceName": "contracts/Manager.sol",
  "abi": [
    {
      "inputs": [],
      "stateMutability": "nonpayable",
      "type": "constructor"
    },
    {
      "inputs": [
        {
          "internalType": "string",
          "name": "_name",
          "type": "string"
        }
      ],
      "name": "createTicket",
      "outputs": [],
      "stateMutability": "nonpayable",
      "type": "function"
    },
    {
      "inputs": [
        {
          "internalType": "uint256",
          "name": "_index",
          "type": "uint256"
        }
      ],
      "name": "deleteTicket",
      "outputs": [],
      "stateMutability": "nonpayable",
      "type": "function"
    },
    {
      "inputs": [],
      "name": "getAllTickets",
      "outputs": [
        {
          "components": [
            {
              "internalType": "uint8",
              "name": "status",
              "type": "uint8"
            },
            {
              "internalType": "string",
              "name": "name",
              "type": "string"
            }
          ],
          "internalType": "struct Manager.Ticket[]",
          "name": "",
          "type": "tuple[]"
        }
      ],
      "stateMutability": "view",
      "type": "function"
    },
    {
      "inputs": [],
      "name": "owner",
      "outputs": [
        {
          "internalType": "address payable",
          "name": "",
          "type": "address"
        }
      ],
      "stateMutability": "view",
      "type": "function"
    },
    {
      "inputs": [
        {
          "internalType": "uint256",
          "name": "",
          "type": "uint256"
        }
      ],
      "name": "tickets",
      "outputs": [
        {
          "internalType": "uint8",
          "name": "status",
          "type": "uint8"
        },
        {
          "internalType": "string",
          "name": "name",
          "type": "string"
        }
      ],
      "stateMutability": "view",
      "type": "function"
    },
    {
      "inputs": [
        {
          "internalType": "uint256",
          "name": "_index",
          "type": "uint256"
        },
        {
          "internalType": "string",
          "name": "_newName",
          "type": "string"
        }
      ],
      "name": "updateTicketName",
      "outputs": [],
      "stateMutability": "nonpayable",
      "type": "function"
    },
    {
      "inputs": [
        {
          "internalType": "uint256",
          "name": "_index",
          "type": "uint256"
        },
        {
          "internalType": "uint8",
          "name": "_newStatus",
          "type": "uint8"
        }
      ],
      "name": "updateTicketStatus",
      "outputs": [],
      "stateMutability": "nonpayable",
      "type": "function"
    }
  ],
  "bytecode": "0x608060405234801561001057600080fd5b50336000806101000a81548173ffffffffffffffffffffffffffffffffffffffff021916908373ffffffffffffffffffffffffffffffffffffffff160217905550610dae806100606000396000f3fe608060405234801561001057600080fd5b506004361061007d5760003560e01c80636897082f1161005b5780636897082f146100ed5780638da5cb5b14610109578063a460b81714610127578063d4ab7b83146101435761007d565b806303e96fe31461008257806350b44712146100a05780635a93fb2d146100d1575b600080fd5b61008a61015f565b60405161009791906106a7565b60405180910390f35b6100ba60048036038101906100b59190610713565b61026d565b6040516100c8929190610799565b60405180910390f35b6100eb60048036038101906100e69190610713565b610336565b005b610107600480360381019061010291906108fe565b610382565b005b610111610402565b60405161011e9190610988565b60405180910390f35b610141600480360381019061013c91906109cf565b610426565b005b61015d60048036038101906101589190610a0f565b610468565b005b60606001805480602002602001604051908101604052809291908181526020016000905b8282101561026457838290600052602060002090600202016040518060400160405290816000820160009054906101000a900460ff1660ff1660ff1681526020016001820180546101d390610a9a565b80601f01602080910402602001604051908101604052809291908181526020018280546101ff90610a9a565b801561024c5780601f106102215761010080835404028352916020019161024c565b820191906000526020600020905b81548152906001019060200180831161022f57829003601f168201915b50505050508152505081526020019060010190610183565b50505050905090565b6001818154811061027d57600080fd5b90600052602060002090600202016000915090508060000160009054906101000a900460ff16908060010180546102b390610a9a565b80601f01602080910402602001604051908101604052809291908181526020018280546102df90610a9a565b801561032c5780601f106103015761010080835404028352916020019161032c565b820191906000526020600020905b81548152906001019060200180831161030f57829003601f168201915b5050505050905082565b6001818154811061034a57610349610acb565b5b9060005260206000209060020201600080820160006101000a81549060ff021916905560018201600061037d919061049f565b505050565b60016040518060400160405280600060ff16815260200183815250908060018154018082558091505060019003906000526020600020906002020160009091909190915060008201518160000160006101000a81548160ff021916908360ff16021790555060208201518160010190816103fc9190610ca6565b50505050565b60008054906101000a900473ffffffffffffffffffffffffffffffffffffffff1681565b806001838154811061043b5761043a610acb565b5b906000526020600020906002020160000160006101000a81548160ff021916908360ff1602179055505050565b806001838154811061047d5761047c610acb565b5b9060005260206000209060020201600101908161049a9190610ca6565b505050565b5080546104ab90610a9a565b6000825580601f106104bd57506104dc565b601f0160209004906000526020600020908101906104db91906104df565b5b50565b5b808211156104f85760008160009055506001016104e0565b5090565b600081519050919050565b600082825260208201905092915050565b6000819050602082019050919050565b600060ff82169050919050565b61053e81610528565b82525050565b600081519050919050565b600082825260208201905092915050565b60005b8381101561057e578082015181840152602081019050610563565b60008484015250505050565b6000601f19601f8301169050919050565b60006105a682610544565b6105b0818561054f565b93506105c0818560208601610560565b6105c98161058a565b840191505092915050565b60006040830160008301516105ec6000860182610535565b5060208301518482036020860152610604828261059b565b9150508091505092915050565b600061061d83836105d4565b905092915050565b6000602082019050919050565b600061063d826104fc565b6106478185610507565b93508360208202850161065985610518565b8060005b8581101561069557848403895281516106768582610611565b945061068183610625565b925060208a0199505060018101905061065d565b50829750879550505050505092915050565b600060208201905081810360008301526106c18184610632565b905092915050565b6000604051905090565b600080fd5b600080fd5b6000819050919050565b6106f0816106dd565b81146106fb57600080fd5b50565b60008135905061070d816106e7565b92915050565b600060208284031215610729576107286106d3565b5b6000610737848285016106fe565b91505092915050565b61074981610528565b82525050565b600082825260208201905092915050565b600061076b82610544565b610775818561074f565b9350610785818560208601610560565b61078e8161058a565b840191505092915050565b60006040820190506107ae6000830185610740565b81810360208301526107c08184610760565b90509392505050565b600080fd5b600080fd5b7f4e487b7100000000000000000000000000000000000000000000000000000000600052604160045260246000fd5b61080b8261058a565b810181811067ffffffffffffffff8211171561082a576108296107d3565b5b80604052505050565b600061083d6106c9565b90506108498282610802565b919050565b600067ffffffffffffffff821115610869576108686107d3565b5b6108728261058a565b9050602081019050919050565b82818337600083830152505050565b60006108a161089c8461084e565b610833565b9050828152602081018484840111156108bd576108bc6107ce565b5b6108c884828561087f565b509392505050565b600082601f8301126108e5576108e46107c9565b5b81356108f584826020860161088e565b91505092915050565b600060208284031215610914576109136106d3565b5b600082013567ffffffffffffffff811115610932576109316106d8565b5b61093e848285016108d0565b91505092915050565b600073ffffffffffffffffffffffffffffffffffffffff82169050919050565b600061097282610947565b9050919050565b61098281610967565b82525050565b600060208201905061099d6000830184610979565b92915050565b6109ac81610528565b81146109b757600080fd5b50565b6000813590506109c9816109a3565b92915050565b600080604083850312156109e6576109e56106d3565b5b60006109f4858286016106fe565b9250506020610a05858286016109ba565b9150509250929050565b60008060408385031215610a2657610a256106d3565b5b6000610a34858286016106fe565b925050602083013567ffffffffffffffff811115610a5557610a546106d8565b5b610a61858286016108d0565b9150509250929050565b7f4e487b7100000000000000000000000000000000000000000000000000000000600052602260045260246000fd5b60006002820490506001821680610ab257607f821691505b602082108103610ac557610ac4610a6b565b5b50919050565b7f4e487b7100000000000000000000000000000000000000000000000000000000600052603260045260246000fd5b60008190508160005260206000209050919050565b60006020601f8301049050919050565b600082821b905092915050565b600060088302610b5c7fffffffffffffffffffffffffffffffffffffffffffffffffffffffffffffffff82610b1f565b610b668683610b1f565b95508019841693508086168417925050509392505050565b6000819050919050565b6000610ba3610b9e610b99846106dd565b610b7e565b6106dd565b9050919050565b6000819050919050565b610bbd83610b88565b610bd1610bc982610baa565b848454610b2c565b825550505050565b600090565b610be6610bd9565b610bf1818484610bb4565b505050565b5b81811015610c1557610c0a600082610bde565b600181019050610bf7565b5050565b601f821115610c5a57610c2b81610afa565b610c3484610b0f565b81016020851015610c43578190505b610c57610c4f85610b0f565b830182610bf6565b50505b505050565b600082821c905092915050565b6000610c7d60001984600802610c5f565b1980831691505092915050565b6000610c968383610c6c565b9150826002028217905092915050565b610caf82610544565b67ffffffffffffffff811115610cc857610cc76107d3565b5b610cd28254610a9a565b610cdd828285610c19565b600060209050601f831160018114610d105760008415610cfe578287015190505b610d088582610c8a565b865550610d70565b601f198416610d1e86610afa565b60005b82811015610d4657848901518255600182019150602085019450602081019050610d21565b86831015610d635784890151610d5f601f891682610c6c565b8355505b6001600288020188555050505b50505050505056fea2646970667358221220d1c84397ecb6ac87d547156f0f5cee9c8f9174f64158224a2d20f7976c98864e64736f6c63430008110033",
  "linkReferences": {},
  "deployedLinkReferences": {}
}